{
  "contractName": "MyContract",
  "abi": [
    {
      "constant": true,
      "inputs": [
        {
          "internalType": "address",
          "name": "deptor",
          "type": "address"
        },
        {
          "internalType": "address",
          "name": "creditor",
          "type": "address"
        }
      ],
      "name": "lookup",
      "outputs": [
        {
          "internalType": "uint32",
          "name": "ret",
          "type": "uint32"
        }
      ],
      "payable": false,
      "stateMutability": "view",
      "type": "function"
    },
    {
      "constant": false,
      "inputs": [
        {
          "internalType": "address",
          "name": "creditor",
          "type": "address"
        },
        {
          "internalType": "uint32",
          "name": "amount",
          "type": "uint32"
        }
      ],
      "name": "add_IOU",
      "outputs": [],
      "payable": false,
      "stateMutability": "nonpayable",
      "type": "function"
    }
  ],
  "bytecode": "0x608060405234801561001057600080fd5b50610291806100206000396000f3fe608060405234801561001057600080fd5b50600436106100365760003560e01c8063713584a61461003b578063d12099e4146100bf575b600080fd5b61009d6004803603604081101561005157600080fd5b81019080803573ffffffffffffffffffffffffffffffffffffffff169060200190929190803573ffffffffffffffffffffffffffffffffffffffff169060200190929190505050610113565b604051808263ffffffff1663ffffffff16815260200191505060405180910390f35b610111600480360360408110156100d557600080fd5b81019080803573ffffffffffffffffffffffffffffffffffffffff169060200190929190803563ffffffff1690602001909291905050506101a9565b005b60008060008473ffffffffffffffffffffffffffffffffffffffff1673ffffffffffffffffffffffffffffffffffffffff16815260200190815260200160002060008373ffffffffffffffffffffffffffffffffffffffff1673ffffffffffffffffffffffffffffffffffffffff16815260200190815260200160002060009054906101000a900463ffffffff16905092915050565b806000803373ffffffffffffffffffffffffffffffffffffffff1673ffffffffffffffffffffffffffffffffffffffff16815260200190815260200160002060008473ffffffffffffffffffffffffffffffffffffffff1673ffffffffffffffffffffffffffffffffffffffff16815260200190815260200160002060008282829054906101000a900463ffffffff160192506101000a81548163ffffffff021916908363ffffffff160217905550505056fea265627a7a7231582077273b4ed288c08575faca07e525acff06a80b7ae57b2acd6b9a6b59e0495fce64736f6c63430005100032",
  "source": "// Please paste your contract's solidity code here\n// Note that writing a contract here WILL NOT deploy it and allow you to access it from your client\n// You should write and develop your contract in Remix and then, before submitting, copy and paste it here\n\npragma solidity >= 0.4 <0.9.0;\n\ncontract MyContract {\n\n\t// struct Dept{\n\t// \taddress creditor;\n\t// \tuint32 dept;\n\t// }\n\t// mapping (address => uint32) CreditorsDept;\n\t// mapping (address => Dept[]) IOUs;\n\tmapping (address => mapping(address => uint32)) IOUs;\n\n\t// Returns the amount that the deptor owes the creditor\n\tfunction lookup (address deptor, address creditor) public view returns (uint32 ret){\n\n\t\t// Dept[] memory depts = IOUs[deptor];\n\n\t\t// for(uint i =0; i < depts.length; i++){\n\n\t\t// \tif(depts[i].)\t\n\t\t// }\n\t\treturn IOUs[deptor][creditor];\n\n\t}\n\n\tfunction add_IOU(address creditor, uint32 amount) external {\n\n\t\tIOUs[msg.sender][creditor] += amount;\n\t}\n\n}",
  "sourcePath": "/Users/nikos/Documents/projects/cs251/Project2/contracts/mycontract.sol",
  "compiler": {
    "name": "solc",
    "version": "0.5.16+commit.9c3226ce.Emscripten.clang"
  },
  "schemaVersion": "3.4.3",
  "updatedAt": "2021-12-18T21:00:55.335Z",
  "devdoc": {
    "methods": {}
  },
  "userdoc": {
    "methods": {}
  }
}